{
  "_format": "hh-sol-artifact-1",
  "contractName": "MyContract",
  "sourceName": "contracts/Books.sol",
  "abi": [
    {
      "inputs": [],
      "stateMutability": "nonpayable",
      "type": "constructor"
    },
    {
      "inputs": [
        {
          "internalType": "uint256",
          "name": "_id",
          "type": "uint256"
        },
        {
          "internalType": "string",
          "name": "_title",
          "type": "string"
        },
        {
          "internalType": "string",
          "name": "_author",
          "type": "string"
        }
      ],
      "name": "addBooks",
      "outputs": [],
      "stateMutability": "nonpayable",
      "type": "function"
    },
    {
      "inputs": [
        {
          "internalType": "uint256",
          "name": "_id",
          "type": "uint256"
        },
        {
          "internalType": "string",
          "name": "_title",
          "type": "string"
        },
        {
          "internalType": "string",
          "name": "_author",
          "type": "string"
        }
      ],
      "name": "addMyBooks",
      "outputs": [],
      "stateMutability": "nonpayable",
      "type": "function"
    },
    {
      "inputs": [
        {
          "internalType": "uint256",
          "name": "",
          "type": "uint256"
        }
      ],
      "name": "books",
      "outputs": [
        {
          "internalType": "string",
          "name": "title",
          "type": "string"
        },
        {
          "internalType": "string",
          "name": "author",
          "type": "string"
        }
      ],
      "stateMutability": "view",
      "type": "function"
    },
    {
      "inputs": [
        {
          "internalType": "address",
          "name": "",
          "type": "address"
        },
        {
          "internalType": "uint256",
          "name": "",
          "type": "uint256"
        }
      ],
      "name": "myBooks",
      "outputs": [
        {
          "internalType": "string",
          "name": "title",
          "type": "string"
        },
        {
          "internalType": "string",
          "name": "author",
          "type": "string"
        }
      ],
      "stateMutability": "view",
      "type": "function"
    },
    {
      "inputs": [
        {
          "internalType": "uint256",
          "name": "",
          "type": "uint256"
        }
      ],
      "name": "names",
      "outputs": [
        {
          "internalType": "string",
          "name": "",
          "type": "string"
        }
      ],
      "stateMutability": "view",
      "type": "function"
    }
  ],
  "bytecode": "0x60806040523480156200001157600080fd5b506040518060400160405280600581526020017f6368756b73000000000000000000000000000000000000000000000000000000815250600080808152602001908152602001600020908162000068919062000449565b506040518060400160405280600681526020017f6461766965730000000000000000000000000000000000000000000000000000815250600080600181526020019081526020016000209081620000c0919062000449565b506040518060400160405280600381526020017f73616d000000000000000000000000000000000000000000000000000000000081525060008060028152602001908152602001600020908162000118919062000449565b506040518060400160405280600481526020017f746f62690000000000000000000000000000000000000000000000000000000081525060008060038152602001908152602001600020908162000170919062000449565b506040518060400160405280600581526020017f6e616f6d69000000000000000000000000000000000000000000000000000000815250600080600481526020019081526020016000209081620001c8919062000449565b5062000530565b600081519050919050565b7f4e487b7100000000000000000000000000000000000000000000000000000000600052604160045260246000fd5b7f4e487b7100000000000000000000000000000000000000000000000000000000600052602260045260246000fd5b600060028204905060018216806200025157607f821691505b60208210810362000267576200026662000209565b5b50919050565b60008190508160005260206000209050919050565b60006020601f8301049050919050565b600082821b905092915050565b600060088302620002d17fffffffffffffffffffffffffffffffffffffffffffffffffffffffffffffffff8262000292565b620002dd868362000292565b95508019841693508086168417925050509392505050565b6000819050919050565b6000819050919050565b60006200032a620003246200031e84620002f5565b620002ff565b620002f5565b9050919050565b6000819050919050565b620003468362000309565b6200035e620003558262000331565b8484546200029f565b825550505050565b600090565b6200037562000366565b620003828184846200033b565b505050565b5b81811015620003aa576200039e6000826200036b565b60018101905062000388565b5050565b601f821115620003f957620003c3816200026d565b620003ce8462000282565b81016020851015620003de578190505b620003f6620003ed8562000282565b83018262000387565b50505b505050565b600082821c905092915050565b60006200041e60001984600802620003fe565b1980831691505092915050565b60006200043983836200040b565b9150826002028217905092915050565b6200045482620001cf565b67ffffffffffffffff81111562000470576200046f620001da565b5b6200047c825462000238565b62000489828285620003ae565b600060209050601f831160018114620004c15760008415620004ac578287015190505b620004b885826200042b565b86555062000528565b601f198416620004d1866200026d565b60005b82811015620004fb57848901518255600182019150602085019450602081019050620004d4565b868310156200051b578489015162000517601f8916826200040b565b8355505b6001600288020188555050505b505050505050565b610c0280620005406000396000f3fe608060405234801561001057600080fd5b50600436106100575760003560e01c806327d3553f1461005c578063306c5a2d1461008d5780634622ab03146100a957806368744046146100d95780638f0a03501461010a575b600080fd5b610076600480360381019061007191906105d8565b610126565b6040516100849291906106a8565b60405180910390f35b6100a760048036038101906100a29190610814565b610267565b005b6100c360048036038101906100be919061089f565b6102c3565b6040516100d091906108cc565b60405180910390f35b6100f360048036038101906100ee919061089f565b610363565b6040516101019291906106a8565b60405180910390f35b610124600480360381019061011f9190610814565b610497565b005b6002602052816000526040600020602052806000526040600020600091509150508060000180546101569061091d565b80601f01602080910402602001604051908101604052809291908181526020018280546101829061091d565b80156101cf5780601f106101a4576101008083540402835291602001916101cf565b820191906000526020600020905b8154815290600101906020018083116101b257829003601f168201915b5050505050908060010180546101e49061091d565b80601f01602080910402602001604051908101604052809291908181526020018280546102109061091d565b801561025d5780601f106102325761010080835404028352916020019161025d565b820191906000526020600020905b81548152906001019060200180831161024057829003601f168201915b5050505050905082565b6040518060400160405280838152602001828152506001600085815260200190815260200160002060008201518160000190816102a49190610afa565b5060208201518160010190816102ba9190610afa565b50905050505050565b600060205280600052604060002060009150905080546102e29061091d565b80601f016020809104026020016040519081016040528092919081815260200182805461030e9061091d565b801561035b5780601f106103305761010080835404028352916020019161035b565b820191906000526020600020905b81548152906001019060200180831161033e57829003601f168201915b505050505081565b60016020528060005260406000206000915090508060000180546103869061091d565b80601f01602080910402602001604051908101604052809291908181526020018280546103b29061091d565b80156103ff5780601f106103d4576101008083540402835291602001916103ff565b820191906000526020600020905b8154815290600101906020018083116103e257829003601f168201915b5050505050908060010180546104149061091d565b80601f01602080910402602001604051908101604052809291908181526020018280546104409061091d565b801561048d5780601f106104625761010080835404028352916020019161048d565b820191906000526020600020905b81548152906001019060200180831161047057829003601f168201915b5050505050905082565b604051806040016040528083815260200182815250600260003373ffffffffffffffffffffffffffffffffffffffff1673ffffffffffffffffffffffffffffffffffffffff168152602001908152602001600020600085815260200190815260200160002060008201518160000190816105119190610afa565b5060208201518160010190816105279190610afa565b50905050505050565b6000604051905090565b600080fd5b600080fd5b600073ffffffffffffffffffffffffffffffffffffffff82169050919050565b600061056f82610544565b9050919050565b61057f81610564565b811461058a57600080fd5b50565b60008135905061059c81610576565b92915050565b6000819050919050565b6105b5816105a2565b81146105c057600080fd5b50565b6000813590506105d2816105ac565b92915050565b600080604083850312156105ef576105ee61053a565b5b60006105fd8582860161058d565b925050602061060e858286016105c3565b9150509250929050565b600081519050919050565b600082825260208201905092915050565b60005b83811015610652578082015181840152602081019050610637565b60008484015250505050565b6000601f19601f8301169050919050565b600061067a82610618565b6106848185610623565b9350610694818560208601610634565b61069d8161065e565b840191505092915050565b600060408201905081810360008301526106c2818561066f565b905081810360208301526106d6818461066f565b90509392505050565b600080fd5b600080fd5b7f4e487b7100000000000000000000000000000000000000000000000000000000600052604160045260246000fd5b6107218261065e565b810181811067ffffffffffffffff821117156107405761073f6106e9565b5b80604052505050565b6000610753610530565b905061075f8282610718565b919050565b600067ffffffffffffffff82111561077f5761077e6106e9565b5b6107888261065e565b9050602081019050919050565b82818337600083830152505050565b60006107b76107b284610764565b610749565b9050828152602081018484840111156107d3576107d26106e4565b5b6107de848285610795565b509392505050565b600082601f8301126107fb576107fa6106df565b5b813561080b8482602086016107a4565b91505092915050565b60008060006060848603121561082d5761082c61053a565b5b600061083b868287016105c3565b935050602084013567ffffffffffffffff81111561085c5761085b61053f565b5b610868868287016107e6565b925050604084013567ffffffffffffffff8111156108895761088861053f565b5b610895868287016107e6565b9150509250925092565b6000602082840312156108b5576108b461053a565b5b60006108c3848285016105c3565b91505092915050565b600060208201905081810360008301526108e6818461066f565b905092915050565b7f4e487b7100000000000000000000000000000000000000000000000000000000600052602260045260246000fd5b6000600282049050600182168061093557607f821691505b602082108103610948576109476108ee565b5b50919050565b60008190508160005260206000209050919050565b60006020601f8301049050919050565b600082821b905092915050565b6000600883026109b07fffffffffffffffffffffffffffffffffffffffffffffffffffffffffffffffff82610973565b6109ba8683610973565b95508019841693508086168417925050509392505050565b6000819050919050565b60006109f76109f26109ed846105a2565b6109d2565b6105a2565b9050919050565b6000819050919050565b610a11836109dc565b610a25610a1d826109fe565b848454610980565b825550505050565b600090565b610a3a610a2d565b610a45818484610a08565b505050565b5b81811015610a6957610a5e600082610a32565b600181019050610a4b565b5050565b601f821115610aae57610a7f8161094e565b610a8884610963565b81016020851015610a97578190505b610aab610aa385610963565b830182610a4a565b50505b505050565b600082821c905092915050565b6000610ad160001984600802610ab3565b1980831691505092915050565b6000610aea8383610ac0565b9150826002028217905092915050565b610b0382610618565b67ffffffffffffffff811115610b1c57610b1b6106e9565b5b610b26825461091d565b610b31828285610a6d565b600060209050601f831160018114610b645760008415610b52578287015190505b610b5c8582610ade565b865550610bc4565b601f198416610b728661094e565b60005b82811015610b9a57848901518255600182019150602085019450602081019050610b75565b86831015610bb75784890151610bb3601f891682610ac0565b8355505b6001600288020188555050505b50505050505056fea264697066735822122078a7e513e2aedcb27315c96dcb47d245efa30b20911b4572653c46b1a0abc12564736f6c63430008130033",
  "linkReferences": {},
  "deployedLinkReferences": {}
}