{
  "_format": "hh-sol-artifact-1",
  "contractName": "FundMe",
  "sourceName": "contracts/FundMe.sol",
  "abi": [
    {
      "inputs": [
        {
          "internalType": "address",
          "name": "priceFeedAddress",
          "type": "address"
        }
      ],
      "stateMutability": "nonpayable",
      "type": "constructor"
    },
    {
      "inputs": [],
      "name": "notOwner",
      "type": "error"
    },
    {
      "stateMutability": "payable",
      "type": "fallback"
    },
    {
      "inputs": [
        {
          "internalType": "address",
          "name": "",
          "type": "address"
        }
      ],
      "name": "AddressToAmountFunded",
      "outputs": [
        {
          "internalType": "uint256",
          "name": "",
          "type": "uint256"
        }
      ],
      "stateMutability": "view",
      "type": "function"
    },
    {
      "inputs": [],
      "name": "fund",
      "outputs": [],
      "stateMutability": "payable",
      "type": "function"
    },
    {
      "inputs": [
        {
          "internalType": "uint256",
          "name": "",
          "type": "uint256"
        }
      ],
      "name": "funders",
      "outputs": [
        {
          "internalType": "address",
          "name": "",
          "type": "address"
        }
      ],
      "stateMutability": "view",
      "type": "function"
    },
    {
      "inputs": [],
      "name": "i_owner",
      "outputs": [
        {
          "internalType": "address",
          "name": "",
          "type": "address"
        }
      ],
      "stateMutability": "view",
      "type": "function"
    },
    {
      "inputs": [],
      "name": "minimumUsd",
      "outputs": [
        {
          "internalType": "uint256",
          "name": "",
          "type": "uint256"
        }
      ],
      "stateMutability": "view",
      "type": "function"
    },
    {
      "inputs": [],
      "name": "priceFeed",
      "outputs": [
        {
          "internalType": "contract AggregatorV3Interface",
          "name": "",
          "type": "address"
        }
      ],
      "stateMutability": "view",
      "type": "function"
    },
    {
      "inputs": [],
      "name": "withdraw",
      "outputs": [],
      "stateMutability": "nonpayable",
      "type": "function"
    },
    {
      "stateMutability": "payable",
      "type": "receive"
    }
  ],
  "bytecode": "0x60a060405234801561001057600080fd5b50604051610ede380380610ede8339818101604052810190610032919061010f565b3373ffffffffffffffffffffffffffffffffffffffff1660808173ffffffffffffffffffffffffffffffffffffffff1681525050806000806101000a81548173ffffffffffffffffffffffffffffffffffffffff021916908373ffffffffffffffffffffffffffffffffffffffff1602179055505061013c565b600080fd5b600073ffffffffffffffffffffffffffffffffffffffff82169050919050565b60006100dc826100b1565b9050919050565b6100ec816100d1565b81146100f757600080fd5b50565b600081519050610109816100e3565b92915050565b600060208284031215610125576101246100ac565b5b6000610133848285016100fa565b91505092915050565b608051610d8061015e600039600081816102c7015261052c0152610d806000f3fe6080604052600436106100745760003560e01c8063b60d42881161004e578063b60d4288146100fa578063dba6335f14610104578063dc0d3dff1461012f578063dc90eddd1461016c57610083565b8063098de8201461008d5780633ccfd60b146100b8578063741bef1a146100cf57610083565b36610083576100816101a9565b005b61008b6101a9565b005b34801561009957600080fd5b506100a26102b8565b6040516100af9190610748565b60405180910390f35b3480156100c457600080fd5b506100cd6102c5565b005b3480156100db57600080fd5b506100e4610506565b6040516100f191906107e2565b60405180910390f35b6101026101a9565b005b34801561011057600080fd5b5061011961052a565b604051610126919061081e565b60405180910390f35b34801561013b57600080fd5b506101566004803603810190610151919061086a565b61054e565b604051610163919061081e565b60405180910390f35b34801561017857600080fd5b50610193600480360381019061018e91906108c3565b61058d565b6040516101a09190610748565b60405180910390f35b6802b5e3af16b18800006101bc346105a5565b10156101fd576040517f08c379a00000000000000000000000000000000000000000000000000000000081526004016101f49061094d565b60405180910390fd5b6001339080600181540180825580915050600190039060005260206000200160009091909190916101000a81548173ffffffffffffffffffffffffffffffffffffffff021916908373ffffffffffffffffffffffffffffffffffffffff16021790555034600260003373ffffffffffffffffffffffffffffffffffffffff1673ffffffffffffffffffffffffffffffffffffffff16815260200190815260200160002060008282546102af919061099c565b92505081905550565b6802b5e3af16b188000081565b7f000000000000000000000000000000000000000000000000000000000000000073ffffffffffffffffffffffffffffffffffffffff163373ffffffffffffffffffffffffffffffffffffffff161461034a576040517f251c9d6300000000000000000000000000000000000000000000000000000000815260040160405180910390fd5b60005b6001805490508110156103f6576000600182815481106103705761036f6109d0565b5b9060005260206000200160009054906101000a900473ffffffffffffffffffffffffffffffffffffffff1690506000600260008373ffffffffffffffffffffffffffffffffffffffff1673ffffffffffffffffffffffffffffffffffffffff168152602001908152602001600020819055505080806103ee906109ff565b91505061034d565b50600067ffffffffffffffff81111561041257610411610a47565b5b6040519080825280602002602001820160405280156104405781602001602082028036833780820191505090505b5060019080519060200190610456929190610688565b5060003373ffffffffffffffffffffffffffffffffffffffff164760405161047d90610aa7565b60006040518083038185875af1925050503d80600081146104ba576040519150601f19603f3d011682016040523d82523d6000602084013e6104bf565b606091505b5050905080610503576040517f08c379a00000000000000000000000000000000000000000000000000000000081526004016104fa90610b08565b60405180910390fd5b50565b60008054906101000a900473ffffffffffffffffffffffffffffffffffffffff1681565b7f000000000000000000000000000000000000000000000000000000000000000081565b6001818154811061055e57600080fd5b906000526020600020016000915054906101000a900473ffffffffffffffffffffffffffffffffffffffff1681565b60026020528060005260406000206000915090505481565b6000806105b06105df565b90506000670de0b6b3a764000084836105c99190610b28565b6105d39190610b99565b90508092505050919050565b60008073694aa1769357215de4fac081bf1f309adc325306905060008173ffffffffffffffffffffffffffffffffffffffff1663feaf968c6040518163ffffffff1660e01b815260040160a060405180830381865afa158015610646573d6000803e3d6000fd5b505050506040513d601f19601f8201168201806040525081019061066a9190610c57565b5050509150506402540be400816106819190610cd2565b9250505090565b828054828255906000526020600020908101928215610701579160200282015b828111156107005782518260006101000a81548173ffffffffffffffffffffffffffffffffffffffff021916908373ffffffffffffffffffffffffffffffffffffffff160217905550916020019190600101906106a8565b5b50905061070e9190610712565b5090565b5b8082111561072b576000816000905550600101610713565b5090565b6000819050919050565b6107428161072f565b82525050565b600060208201905061075d6000830184610739565b92915050565b600073ffffffffffffffffffffffffffffffffffffffff82169050919050565b6000819050919050565b60006107a86107a361079e84610763565b610783565b610763565b9050919050565b60006107ba8261078d565b9050919050565b60006107cc826107af565b9050919050565b6107dc816107c1565b82525050565b60006020820190506107f760008301846107d3565b92915050565b600061080882610763565b9050919050565b610818816107fd565b82525050565b6000602082019050610833600083018461080f565b92915050565b600080fd5b6108478161072f565b811461085257600080fd5b50565b6000813590506108648161083e565b92915050565b6000602082840312156108805761087f610839565b5b600061088e84828501610855565b91505092915050565b6108a0816107fd565b81146108ab57600080fd5b50565b6000813590506108bd81610897565b92915050565b6000602082840312156108d9576108d8610839565b5b60006108e7848285016108ae565b91505092915050565b600082825260208201905092915050565b7f6e6f206d756368206d6f6e657900000000000000000000000000000000000000600082015250565b6000610937600d836108f0565b915061094282610901565b602082019050919050565b600060208201905081810360008301526109668161092a565b9050919050565b7f4e487b7100000000000000000000000000000000000000000000000000000000600052601160045260246000fd5b60006109a78261072f565b91506109b28361072f565b92508282019050808211156109ca576109c961096d565b5b92915050565b7f4e487b7100000000000000000000000000000000000000000000000000000000600052603260045260246000fd5b6000610a0a8261072f565b91507fffffffffffffffffffffffffffffffffffffffffffffffffffffffffffffffff8203610a3c57610a3b61096d565b5b600182019050919050565b7f4e487b7100000000000000000000000000000000000000000000000000000000600052604160045260246000fd5b600081905092915050565b50565b6000610a91600083610a76565b9150610a9c82610a81565b600082019050919050565b6000610ab282610a84565b9150819050919050565b7f63616c6c206661696c6564000000000000000000000000000000000000000000600082015250565b6000610af2600b836108f0565b9150610afd82610abc565b602082019050919050565b60006020820190508181036000830152610b2181610ae5565b9050919050565b6000610b338261072f565b9150610b3e8361072f565b9250828202610b4c8161072f565b91508282048414831517610b6357610b6261096d565b5b5092915050565b7f4e487b7100000000000000000000000000000000000000000000000000000000600052601260045260246000fd5b6000610ba48261072f565b9150610baf8361072f565b925082610bbf57610bbe610b6a565b5b828204905092915050565b600069ffffffffffffffffffff82169050919050565b610be981610bca565b8114610bf457600080fd5b50565b600081519050610c0681610be0565b92915050565b6000819050919050565b610c1f81610c0c565b8114610c2a57600080fd5b50565b600081519050610c3c81610c16565b92915050565b600081519050610c518161083e565b92915050565b600080600080600060a08688031215610c7357610c72610839565b5b6000610c8188828901610bf7565b9550506020610c9288828901610c2d565b9450506040610ca388828901610c42565b9350506060610cb488828901610c42565b9250506080610cc588828901610bf7565b9150509295509295909350565b6000610cdd82610c0c565b9150610ce883610c0c565b9250828202610cf681610c0c565b91507f80000000000000000000000000000000000000000000000000000000000000008414600084121615610d2e57610d2d61096d565b5b8282058414831517610d4357610d4261096d565b5b509291505056fea26469706673582212202a1eabe5647aeb636265118db02983ad4d090520d7a4a8971c4f593efaa477d164736f6c63430008130033",
  "linkReferences": {},
  "deployedLinkReferences": {}
}