{
  "_format": "hh-sol-artifact-1",
  "contractName": "MyContract",
  "sourceName": "contracts/MyContract.sol",
  "abi": [
    {
      "inputs": [],
      "name": "countEvenNumbers",
      "outputs": [
        {
          "internalType": "uint256",
          "name": "",
          "type": "uint256"
        }
      ],
      "stateMutability": "view",
      "type": "function"
    },
    {
      "inputs": [
        {
          "internalType": "uint256",
          "name": "_number",
          "type": "uint256"
        }
      ],
      "name": "isEvenNumber",
      "outputs": [
        {
          "internalType": "bool",
          "name": "",
          "type": "bool"
        }
      ],
      "stateMutability": "view",
      "type": "function"
    },
    {
      "inputs": [
        {
          "internalType": "uint256",
          "name": "",
          "type": "uint256"
        }
      ],
      "name": "numbers",
      "outputs": [
        {
          "internalType": "uint256",
          "name": "",
          "type": "uint256"
        }
      ],
      "stateMutability": "view",
      "type": "function"
    }
  ],
  "bytecode": "0x6080604052604051806101400160405280600160ff168152602001600260ff168152602001600360ff168152602001600460ff168152602001600560ff168152602001600660ff168152602001600760ff168152602001600860ff168152602001600960ff168152602001600a60ff16815250600090600a610082929190610095565b5034801561008f57600080fd5b50610104565b8280548282559060005260206000209081019282156100d6579160200282015b828111156100d5578251829060ff169055916020019190600101906100b5565b5b5090506100e391906100e7565b5090565b5b808211156101005760008160009055506001016100e8565b5090565b610381806101136000396000f3fe608060405234801561001057600080fd5b50600436106100415760003560e01c8063306d3e0214610046578063d39fa23314610064578063e5054c6914610094575b600080fd5b61004e6100c4565b60405161005b9190610196565b60405180910390f35b61007e600480360381019061007991906101e2565b610131565b60405161008b9190610196565b60405180910390f35b6100ae60048036038101906100a991906101e2565b610155565b6040516100bb919061022a565b60405180910390f35b6000806000905060005b60008054905081101561012957610102600082815481106100f2576100f1610245565b5b9060005260206000200154610155565b15610116578180610112906102a3565b9250505b8080610121906102a3565b9150506100ce565b508091505090565b6000818154811061014157600080fd5b906000526020600020016000915090505481565b600080600283610165919061031a565b036101735760019050610178565b600090505b919050565b6000819050919050565b6101908161017d565b82525050565b60006020820190506101ab6000830184610187565b92915050565b600080fd5b6101bf8161017d565b81146101ca57600080fd5b50565b6000813590506101dc816101b6565b92915050565b6000602082840312156101f8576101f76101b1565b5b6000610206848285016101cd565b91505092915050565b60008115159050919050565b6102248161020f565b82525050565b600060208201905061023f600083018461021b565b92915050565b7f4e487b7100000000000000000000000000000000000000000000000000000000600052603260045260246000fd5b7f4e487b7100000000000000000000000000000000000000000000000000000000600052601160045260246000fd5b60006102ae8261017d565b91507fffffffffffffffffffffffffffffffffffffffffffffffffffffffffffffffff82036102e0576102df610274565b5b600182019050919050565b7f4e487b7100000000000000000000000000000000000000000000000000000000600052601260045260246000fd5b60006103258261017d565b91506103308361017d565b9250826103405761033f6102eb565b5b82820690509291505056fea26469706673582212200bb13a2a31d1514de08a28a8c8e7a183bfce9aae192d958922825002bb0ca5db64736f6c63430008130033",
  "linkReferences": {},
  "deployedLinkReferences": {}
}