{
  "_format": "hh-sol-artifact-1",
  "contractName": "HotelRooom",
  "sourceName": "contracts/Hotel.sol",
  "abi": [
    {
      "inputs": [],
      "stateMutability": "nonpayable",
      "type": "constructor"
    },
    {
      "anonymous": false,
      "inputs": [
        {
          "indexed": false,
          "internalType": "address",
          "name": "_occupant",
          "type": "address"
        },
        {
          "indexed": false,
          "internalType": "uint256",
          "name": "_value",
          "type": "uint256"
        }
      ],
      "name": "Occupy",
      "type": "event"
    },
    {
      "inputs": [],
      "name": "books",
      "outputs": [],
      "stateMutability": "payable",
      "type": "function"
    },
    {
      "inputs": [],
      "name": "currentStatus",
      "outputs": [
        {
          "internalType": "enum HotelRooom.Statuses",
          "name": "",
          "type": "uint8"
        }
      ],
      "stateMutability": "view",
      "type": "function"
    },
    {
      "inputs": [],
      "name": "owner",
      "outputs": [
        {
          "internalType": "address payable",
          "name": "",
          "type": "address"
        }
      ],
      "stateMutability": "view",
      "type": "function"
    }
  ],
  "bytecode": "0x608060405234801561001057600080fd5b5033600060016101000a81548173ffffffffffffffffffffffffffffffffffffffff021916908373ffffffffffffffffffffffffffffffffffffffff16021790555060008060006101000a81548160ff0219169083600181111561007757610076610081565b5b02179055506100b0565b7f4e487b7100000000000000000000000000000000000000000000000000000000600052602160045260246000fd5b6105b2806100bf6000396000f3fe6080604052600436106100345760003560e01c80635c8fe438146100395780638da5cb5b14610043578063ef8a92351461006e575b600080fd5b610041610099565b005b34801561004f57600080fd5b506100586102c5565b604051610065919061033d565b60405180910390f35b34801561007a57600080fd5b506100836102eb565b60405161009091906103cf565b60405180910390f35b600060018111156100ad576100ac610358565b5b60008054906101000a900460ff1660018111156100cd576100cc610358565b5b1461010d576040517f08c379a000000000000000000000000000000000000000000000000000000000815260040161010490610447565b60405180910390fd5b671bc16d674ec8000080341015610159576040517f08c379a0000000000000000000000000000000000000000000000000000000008152600401610150906104b3565b60405180910390fd5b60016000806101000a81548160ff0219169083600181111561017e5761017d610358565b5b0217905550600060019054906101000a900473ffffffffffffffffffffffffffffffffffffffff1673ffffffffffffffffffffffffffffffffffffffff166108fc349081150290604051600060405180830381858888f193505050501580156101eb573d6000803e3d6000fd5b50600080600060019054906101000a900473ffffffffffffffffffffffffffffffffffffffff1673ffffffffffffffffffffffffffffffffffffffff163460405161023590610504565b60006040518083038185875af1925050503d8060008114610272576040519150601f19603f3d011682016040523d82523d6000602084013e610277565b606091505b5091509150600161028757600080fd5b7fba951166d42eb077151bdecb7cf6027562f04f0143b0c141b1bb0a33eef5d69333346040516102b8929190610553565b60405180910390a1505050565b600060019054906101000a900473ffffffffffffffffffffffffffffffffffffffff1681565b60008054906101000a900460ff1681565b600073ffffffffffffffffffffffffffffffffffffffff82169050919050565b6000610327826102fc565b9050919050565b6103378161031c565b82525050565b6000602082019050610352600083018461032e565b92915050565b7f4e487b7100000000000000000000000000000000000000000000000000000000600052602160045260246000fd5b6002811061039857610397610358565b5b50565b60008190506103a982610387565b919050565b60006103b98261039b565b9050919050565b6103c9816103ae565b82525050565b60006020820190506103e460008301846103c0565b92915050565b600082825260208201905092915050565b7f43757272656e746c79204f636375706965640000000000000000000000000000600082015250565b60006104316012836103ea565b915061043c826103fb565b602082019050919050565b6000602082019050818103600083015261046081610424565b9050919050565b7f4e6f7420656e6f7567682065746865722070726f766964656400000000000000600082015250565b600061049d6019836103ea565b91506104a882610467565b602082019050919050565b600060208201905081810360008301526104cc81610490565b9050919050565b600081905092915050565b50565b60006104ee6000836104d3565b91506104f9826104de565b600082019050919050565b600061050f826104e1565b9150819050919050565b6000610524826102fc565b9050919050565b61053481610519565b82525050565b6000819050919050565b61054d8161053a565b82525050565b6000604082019050610568600083018561052b565b6105756020830184610544565b939250505056fea26469706673582212204673ce04e0347356db52653b6ff8bef8cc12bc4b939ee2df2e5f268a36e4965d64736f6c63430008130033",
  "linkReferences": {},
  "deployedLinkReferences": {}
}